{
  "_format": "hh-sol-artifact-1",
  "contractName": "InsurancePolicy",
  "sourceName": "contracts/InsurancePolicy.sol",
  "abi": [
    {
      "anonymous": false,
      "inputs": [
        {
          "indexed": false,
          "internalType": "uint256",
          "name": "policyId",
          "type": "uint256"
        },
        {
          "indexed": false,
          "internalType": "string",
          "name": "firstName",
          "type": "string"
        },
        {
          "indexed": false,
          "internalType": "string",
          "name": "lastName",
          "type": "string"
        },
        {
          "indexed": false,
          "internalType": "uint256",
          "name": "premiumAmount",
          "type": "uint256"
        },
        {
          "indexed": false,
          "internalType": "uint256",
          "name": "coverageAmount",
          "type": "uint256"
        },
        {
          "indexed": false,
          "internalType": "address",
          "name": "owner",
          "type": "address"
        }
      ],
      "name": "PolicyCreated",
      "type": "event"
    },
    {
      "inputs": [
        {
          "internalType": "string",
          "name": "_firstName",
          "type": "string"
        },
        {
          "internalType": "string",
          "name": "_lastName",
          "type": "string"
        },
        {
          "internalType": "uint8",
          "name": "_premiumIndex",
          "type": "uint8"
        }
      ],
      "name": "createPolicy",
      "outputs": [
        {
          "internalType": "uint256",
          "name": "",
          "type": "uint256"
        }
      ],
      "stateMutability": "nonpayable",
      "type": "function"
    },
    {
      "inputs": [],
      "name": "getAllPolicies",
      "outputs": [
        {
          "components": [
            {
              "internalType": "uint256",
              "name": "policyId",
              "type": "uint256"
            },
            {
              "internalType": "string",
              "name": "firstName",
              "type": "string"
            },
            {
              "internalType": "string",
              "name": "lastName",
              "type": "string"
            },
            {
              "internalType": "uint256",
              "name": "premiumAmount",
              "type": "uint256"
            },
            {
              "internalType": "uint256",
              "name": "coverageAmount",
              "type": "uint256"
            },
            {
              "internalType": "address",
              "name": "owner",
              "type": "address"
            }
          ],
          "internalType": "struct InsurancePolicy.Policy[]",
          "name": "",
          "type": "tuple[]"
        }
      ],
      "stateMutability": "view",
      "type": "function"
    },
    {
      "inputs": [],
      "name": "getCoverageOptions",
      "outputs": [
        {
          "internalType": "uint256[3]",
          "name": "",
          "type": "uint256[3]"
        }
      ],
      "stateMutability": "view",
      "type": "function"
    },
    {
      "inputs": [
        {
          "internalType": "uint256",
          "name": "_policyId",
          "type": "uint256"
        }
      ],
      "name": "getPolicy",
      "outputs": [
        {
          "components": [
            {
              "internalType": "uint256",
              "name": "policyId",
              "type": "uint256"
            },
            {
              "internalType": "string",
              "name": "firstName",
              "type": "string"
            },
            {
              "internalType": "string",
              "name": "lastName",
              "type": "string"
            },
            {
              "internalType": "uint256",
              "name": "premiumAmount",
              "type": "uint256"
            },
            {
              "internalType": "uint256",
              "name": "coverageAmount",
              "type": "uint256"
            },
            {
              "internalType": "address",
              "name": "owner",
              "type": "address"
            }
          ],
          "internalType": "struct InsurancePolicy.Policy",
          "name": "",
          "type": "tuple"
        }
      ],
      "stateMutability": "view",
      "type": "function"
    },
    {
      "inputs": [],
      "name": "getPremiumOptions",
      "outputs": [
        {
          "internalType": "uint256[3]",
          "name": "",
          "type": "uint256[3]"
        }
      ],
      "stateMutability": "view",
      "type": "function"
    }
  ],
  "bytecode": "0x600160025560e0604052670de0b6b3a76400006080908152671bc16d674ec8000060a0526729a2241af62c000060c05261003c9060039081610093565b5060408051606081018252678ac7230489e8000081526801158e460913d0000060208201526801a055690d9db80000918101919091526100809060069060036100dc565b5034801561008d57600080fd5b5061012a565b82600381019282156100cc579160200282015b828111156100cc57825182906001600160401b03169055916020019190600101906100a6565b506100d8929150610115565b5090565b82600381019282156100cc579160200282015b828111156100cc57825182906001600160481b03169055916020019190600101906100ef565b5b808211156100d85760008155600101610116565b610c21806101396000396000f3fe608060405234801561001057600080fd5b50600436106100575760003560e01c80631555c07b1461005c578063164913ea1461007a5780632b07fce314610082578063457e5521146100a25780635335a001146100b7575b600080fd5b6100646100d8565b6040516100719190610780565b60405180910390f35b610064610112565b6100956100903660046107b1565b610148565b604051610071919061087b565b6100aa61032e565b6040516100719190610895565b6100ca6100c536600461099a565b61055a565b604051908152602001610071565b6100e0610723565b60408051606081019182905290600390819081845b8154815260200190600101908083116100f5575050505050905090565b61011a610723565b60408051606081019182905260068054825290916003906007602085018083116100f5575050505050905090565b610150610741565b60008281526020819052604090206005015482906001600160a01b031633146101b85760405162461bcd60e51b81526020600482015260156024820152742737ba103a3432903837b634b1bc9037bbb732b91760591b60448201526064015b60405180910390fd5b60008381526020818152604091829020825160c081019093528054835260018101805491928401916101e990610a18565b80601f016020809104026020016040519081016040528092919081815260200182805461021590610a18565b80156102625780601f1061023757610100808354040283529160200191610262565b820191906000526020600020905b81548152906001019060200180831161024557829003601f168201915b5050505050815260200160028201805461027b90610a18565b80601f01602080910402602001604051908101604052809291908181526020018280546102a790610a18565b80156102f45780601f106102c9576101008083540402835291602001916102f4565b820191906000526020600020905b8154815290600101906020018083116102d757829003601f168201915b505050918352505060038201546020820152600482015460408201526005909101546001600160a01b031660609091015291505b50919050565b60015460609060009067ffffffffffffffff81111561034f5761034f6108f7565b60405190808252806020026020018201604052801561038857816020015b610375610741565b81526020019060019003908161036d5790505b50905060005b60015481101561032857600080600183815481106103ae576103ae610a4c565b906000526020600020015481526020019081526020016000206040518060c0016040529081600082015481526020016001820180546103ec90610a18565b80601f016020809104026020016040519081016040528092919081815260200182805461041890610a18565b80156104655780601f1061043a57610100808354040283529160200191610465565b820191906000526020600020905b81548152906001019060200180831161044857829003601f168201915b5050505050815260200160028201805461047e90610a18565b80601f01602080910402602001604051908101604052809291908181526020018280546104aa90610a18565b80156104f75780601f106104cc576101008083540402835291602001916104f7565b820191906000526020600020905b8154815290600101906020018083116104da57829003601f168201915b505050918352505060038201546020820152600482015460408201526005909101546001600160a01b0316606090910152825183908390811061053c5761053c610a4c565b6020026020010181905250808061055290610a62565b91505061038e565b600060038260ff16106105af5760405162461bcd60e51b815260206004820181905260248201527f496e76616c6964207072656d69756d206f7074696f6e2073656c65637465642e60448201526064016101af565b60028054600091826105c083610a62565b919050559050600060038460ff16600381106105de576105de610a4c565b01549050600060068560ff16600381106105fa576105fa610a4c565b01546040805160c08101825285815260208082018b81528284018b905260608301879052608083018590523360a08401526000888152918290529290208151815591519293509160018201906106509082610ad8565b50604082015160028201906106659082610ad8565b50606082015160038201556080820151600482015560a090910151600590910180546001600160a01b0319166001600160a01b039092169190911790556001805480820182556000919091527fb10e2d527612073b26eecdfd717e6a320cf44b4afac2b0732d9fcbe2b7fa0cf6018390556040517f34ed5df809251955958e28849bfb9dcd94fc035aa8e296c06e4d095ddcc9dcb4906107109085908a908a90879087903390610b98565b60405180910390a1509095945050505050565b60405180606001604052806003906020820280368337509192915050565b6040518060c00160405280600081526020016060815260200160608152602001600081526020016000815260200160006001600160a01b031681525090565b60608101818360005b60038110156107a8578151835260209283019290910190600101610789565b50505092915050565b6000602082840312156107c357600080fd5b5035919050565b6000815180845260005b818110156107f0576020818501810151868301820152016107d4565b506000602082860101526020601f19601f83011685010191505092915050565b805182526000602082015160c0602085015261082f60c08501826107ca565b90506040830151848203604086015261084882826107ca565b606085810151908701526080808601519087015260a0948501516001600160a01b03169490950193909352509192915050565b60208152600061088e6020830184610810565b9392505050565b6000602080830181845280855180835260408601915060408160051b870101925083870160005b828110156108ea57603f198886030184526108d8858351610810565b945092850192908501906001016108bc565b5092979650505050505050565b634e487b7160e01b600052604160045260246000fd5b600082601f83011261091e57600080fd5b813567ffffffffffffffff80821115610939576109396108f7565b604051601f8301601f19908116603f01168101908282118183101715610961576109616108f7565b8160405283815286602085880101111561097a57600080fd5b836020870160208301376000602085830101528094505050505092915050565b6000806000606084860312156109af57600080fd5b833567ffffffffffffffff808211156109c757600080fd5b6109d38783880161090d565b945060208601359150808211156109e957600080fd5b506109f68682870161090d565b925050604084013560ff81168114610a0d57600080fd5b809150509250925092565b600181811c90821680610a2c57607f821691505b60208210810361032857634e487b7160e01b600052602260045260246000fd5b634e487b7160e01b600052603260045260246000fd5b600060018201610a8257634e487b7160e01b600052601160045260246000fd5b5060010190565b601f821115610ad357600081815260208120601f850160051c81016020861015610ab05750805b601f850160051c820191505b81811015610acf57828155600101610abc565b5050505b505050565b815167ffffffffffffffff811115610af257610af26108f7565b610b0681610b008454610a18565b84610a89565b602080601f831160018114610b3b5760008415610b235750858301515b600019600386901b1c1916600185901b178555610acf565b600085815260208120601f198616915b82811015610b6a57888601518255948401946001909101908401610b4b565b5085821015610b885787850151600019600388901b60f8161c191681555b5050505050600190811b01905550565b86815260c060208201526000610bb160c08301886107ca565b8281036040840152610bc381886107ca565b6060840196909652505060808101929092526001600160a01b031660a090910152939250505056fea2646970667358221220c1a66e4701fa044cc3e654f675e6cc871e89c94173dbdebd478f6d2493d2e89d64736f6c63430008140033",
  "linkReferences": {},
  "deployedLinkReferences": {}
}