{
  "_format": "hh-sol-artifact-1",
  "contractName": "Claim",
  "sourceName": "contracts/Claim.sol",
  "abi": [
    {
      "anonymous": false,
      "inputs": [
        {
          "indexed": false,
          "internalType": "uint256",
          "name": "claimId",
          "type": "uint256"
        },
        {
          "indexed": false,
          "internalType": "uint256",
          "name": "policyId",
          "type": "uint256"
        },
        {
          "indexed": false,
          "internalType": "string",
          "name": "description",
          "type": "string"
        },
        {
          "indexed": false,
          "internalType": "address",
          "name": "claimant",
          "type": "address"
        }
      ],
      "name": "ClaimSubmitted",
      "type": "event"
    },
    {
      "inputs": [
        {
          "internalType": "uint256",
          "name": "_policyId",
          "type": "uint256"
        },
        {
          "internalType": "uint256",
          "name": "_claimId",
          "type": "uint256"
        }
      ],
      "name": "approveClaim",
      "outputs": [],
      "stateMutability": "nonpayable",
      "type": "function"
    },
    {
      "inputs": [
        {
          "internalType": "uint256",
          "name": "_policyId",
          "type": "uint256"
        }
      ],
      "name": "getClaimsByPolicyId",
      "outputs": [
        {
          "components": [
            {
              "internalType": "uint256",
              "name": "claimId",
              "type": "uint256"
            },
            {
              "internalType": "uint256",
              "name": "policyId",
              "type": "uint256"
            },
            {
              "internalType": "string",
              "name": "description",
              "type": "string"
            },
            {
              "internalType": "address",
              "name": "claimant",
              "type": "address"
            },
            {
              "internalType": "bool",
              "name": "isApproved",
              "type": "bool"
            }
          ],
          "internalType": "struct Claim.ClaimDetail[]",
          "name": "",
          "type": "tuple[]"
        }
      ],
      "stateMutability": "view",
      "type": "function"
    },
    {
      "inputs": [
        {
          "internalType": "uint256",
          "name": "_policyId",
          "type": "uint256"
        },
        {
          "internalType": "string",
          "name": "_description",
          "type": "string"
        }
      ],
      "name": "submitClaim",
      "outputs": [
        {
          "internalType": "uint256",
          "name": "",
          "type": "uint256"
        }
      ],
      "stateMutability": "nonpayable",
      "type": "function"
    }
  ],
  "bytecode": "0x60806040526001805534801561001457600080fd5b5061076b806100246000396000f3fe608060405234801561001057600080fd5b50600436106100415760003560e01c806345b46525146100465780634feac9181461006c5780637fbe658c1461008c575b600080fd5b61005961005436600461039b565b6100a1565b6040519081526020015b60405180910390f35b61007f61007a366004610456565b6101aa565b60405161006391906104b5565b61009f61009a366004610555565b6102e9565b005b60018054600091829190826100b583610577565b909155506040805160a08101825282815260208082018881528284018881523360608501526000608085018190528a815280845294852080546001818101835591875293909520845160049094020192835590519382019390935591519293509182919060028201906101289082610627565b506060820151600390910180546080909301511515600160a01b026001600160a81b03199093166001600160a01b03909216919091179190911790556040517f0111be36e30041bb8f53e3266aab4cd0f1cb77229305d26ec8f8a9959c6657749061019a9084908890889033906106e7565b60405180910390a1509392505050565b600081815260208181526040808320805482518185028101850190935280835260609492939192909184015b828210156102de57838290600052602060002090600402016040518060a0016040529081600082015481526020016001820154815260200160028201805461021d9061059e565b80601f01602080910402602001604051908101604052809291908181526020018280546102499061059e565b80156102965780601f1061026b57610100808354040283529160200191610296565b820191906000526020600020905b81548152906001019060200180831161027957829003601f168201915b5050509183525050600391909101546001600160a01b038116602080840191909152600160a01b90910460ff16151560409092019190915290825260019290920191016101d6565b505050509050919050565b6000828152602081905260408120905b815481101561037f57828282815481106103155761031561071f565b9060005260206000209060040201600001540361036d5760018282815481106103405761034061071f565b906000526020600020906004020160030160146101000a81548160ff02191690831515021790555061037f565b8061037781610577565b9150506102f9565b50505050565b634e487b7160e01b600052604160045260246000fd5b600080604083850312156103ae57600080fd5b82359150602083013567ffffffffffffffff808211156103cd57600080fd5b818501915085601f8301126103e157600080fd5b8135818111156103f3576103f3610385565b604051601f8201601f19908116603f0116810190838211818310171561041b5761041b610385565b8160405282815288602084870101111561043457600080fd5b8260208601602083013760006020848301015280955050505050509250929050565b60006020828403121561046857600080fd5b5035919050565b6000815180845260005b8181101561049557602081850181015186830182015201610479565b506000602082860101526020601f19601f83011685010191505092915050565b60006020808301818452808551808352604092508286019150828160051b87010184880160005b8381101561054757603f19898403018552815160a08151855288820151898601528782015181898701526105128287018261046f565b6060848101516001600160a01b03169088015260809384015115159390960192909252505093860193908601906001016104dc565b509098975050505050505050565b6000806040838503121561056857600080fd5b50508035926020909101359150565b60006001820161059757634e487b7160e01b600052601160045260246000fd5b5060010190565b600181811c908216806105b257607f821691505b6020821081036105d257634e487b7160e01b600052602260045260246000fd5b50919050565b601f82111561062257600081815260208120601f850160051c810160208610156105ff5750805b601f850160051c820191505b8181101561061e5782815560010161060b565b5050505b505050565b815167ffffffffffffffff81111561064157610641610385565b6106558161064f845461059e565b846105d8565b602080601f83116001811461068a57600084156106725750858301515b600019600386901b1c1916600185901b17855561061e565b600085815260208120601f198616915b828110156106b95788860151825594840194600190910190840161069a565b50858210156106d75787850151600019600388901b60f8161c191681555b5050505050600190811b01905550565b848152836020820152608060408201526000610706608083018561046f565b905060018060a01b038316606083015295945050505050565b634e487b7160e01b600052603260045260246000fdfea2646970667358221220a3f965f426f2fc944664c98169a925eb0f559ec3b7d714f46496325d4d4f70b964736f6c63430008140033",
  "linkReferences": {},
  "deployedLinkReferences": {}
}